{
  "contractName": "SimpleStorage",
  "abi": [
    {
      "anonymous": false,
      "inputs": [
        {
          "indexed": false,
          "internalType": "uint256",
          "name": "id",
          "type": "uint256"
        },
        {
          "indexed": false,
          "internalType": "string",
          "name": "ipfsHash",
          "type": "string"
        }
      ],
      "name": "dataInserted",
      "type": "event"
    },
    {
      "constant": true,
      "inputs": [
        {
          "internalType": "uint256",
          "name": "",
          "type": "uint256"
        }
      ],
      "name": "data",
      "outputs": [
        {
          "internalType": "string",
          "name": "",
          "type": "string"
        }
      ],
      "payable": false,
      "stateMutability": "view",
      "type": "function"
    },
    {
      "constant": true,
      "inputs": [],
      "name": "number",
      "outputs": [
        {
          "internalType": "uint256",
          "name": "",
          "type": "uint256"
        }
      ],
      "payable": false,
      "stateMutability": "view",
      "type": "function"
    },
    {
      "constant": false,
      "inputs": [
        {
          "internalType": "string",
          "name": "x",
          "type": "string"
        }
      ],
      "name": "set",
      "outputs": [],
      "payable": false,
      "stateMutability": "nonpayable",
      "type": "function"
    }
  ],
  "bytecode": "0x60806040526000805534801561001457600080fd5b506103d7806100246000396000f3fe608060405234801561001057600080fd5b50600436106100415760003560e01c80634ed3885e146100465780638381f58a146100ee578063f0ba844014610108575b600080fd5b6100ec6004803603602081101561005c57600080fd5b81019060208101813564010000000081111561007757600080fd5b82018360208201111561008957600080fd5b803590602001918460018302840111640100000000831117156100ab57600080fd5b91908080601f01602080910402602001604051908101604052809392919081815260200183838082843760009201919091525092955061019a945050505050565b005b6100f6610267565b60408051918252519081900360200190f35b6101256004803603602081101561011e57600080fd5b503561026d565b6040805160208082528351818301528351919283929083019185019080838360005b8381101561015f578181015183820152602001610147565b50505050905090810190601f16801561018c5780820380516001836020036101000a031916815260200191505b509250505060405180910390f35b60008054600190810180835582526020908152604090912082516101c092840190610307565b507fd2ae6d0376dc4c34f1943991cf7a4cfa0185ccd8ee3c9f927ea1e522b126d3ff600054826040518083815260200180602001828103825283818151815260200191508051906020019080838360005b83811015610229578181015183820152602001610211565b50505050905090810190601f1680156102565780820380516001836020036101000a031916815260200191505b50935050505060405180910390a150565b60005481565b60016020818152600092835260409283902080548451600294821615610100026000190190911693909304601f81018390048302840183019094528383529192908301828280156102ff5780601f106102d4576101008083540402835291602001916102ff565b820191906000526020600020905b8154815290600101906020018083116102e257829003601f168201915b505050505081565b828054600181600116156101000203166002900490600052602060002090601f016020900481019282601f1061034857805160ff1916838001178555610375565b82800160010185558215610375579182015b8281111561037557825182559160200191906001019061035a565b50610381929150610385565b5090565b61039f91905b80821115610381576000815560010161038b565b9056fea265627a7a72315820c3e3635e66849a46b6583f2ed3f6fdf06ca2cd81333cd9a1f8097b3ffcc0104a64736f6c63430005100032",
  "source": "pragma solidity ^0.5.16;\n\ncontract SimpleStorage {\n  uint public number = 0;\n  mapping(uint => string) public data;\n  event dataInserted(\n    uint id,\n    string ipfsHash\n  );\n  function set(string memory x) public {\n    number++;\n    data[number] = x;\n    emit dataInserted(number,x);\n  }\n}\n",
  "sourcePath": "C:\\Users\\Varun Shah\\Desktop\\working - Copy\\contracts\\SimpleStorage.sol",
  "compiler": {
    "name": "solc",
    "version": "0.5.16+commit.9c3226ce.Emscripten.clang"
  },
  "schemaVersion": "3.4.14",
  "updatedAt": "2023-07-21T17:54:53.790Z",
  "networkType": "ethereum",
  "devdoc": {
    "methods": {}
  },
  "userdoc": {
    "methods": {}
  }
}